:100000000C942A000C940C0D0C94730D0C94D30DCD
:100010000C94B41C0C94871C0C9447000C9447005F
:100020000C9447000C9447000C944C1C0C942F1C0F
:100030000C9447000C949C1D0C9447000C94C91D13
:100040000C9460080C9447000C9447000C944700F3
:100050000C94470011241FBECFE5D8E0DEBFCDBF12
:1000600011E0A0E6B0E0E6ECFFE302C005900D92DF
:10007000A23BB107D9F711E0A2EBB1E001C01D929C
:10008000AE3CB107E1F70E94D91D0C94E11F0C941E
:100090000000EF92FF920F931F937B018C0120E0F1
:1000A00030E040E05FE40E94F50388238CF0C80153
:1000B000B70120E030E040E05FE40E94C1010E940F
:1000C000B3049B01AC01205030404040504806C072
:1000D000C801B7010E94B3049B01AC01B901CA0178
:1000E0001F910F91FF90EF900895A0E0B0E0EBE733
:1000F000F0E00C94AA1FDC012B01FA019C919230D4
:1001000008F439C1EB018881823008F433C194309E
:1001100069F4843009F02FC111969C91119789815F
:10012000981709F428C1A7EAB0E025C1843009F482
:1001300021C18230A9F4923009F01DC19A01AD01AC
:1001400088E0EA010990AE01E90109929E0181501F
:10015000C1F7E201898111969C918923818308C1AD
:10016000923009F407C112962D903C901397EB0141
:100170008A819B811496AD90BD90CD90DC901797AD
:10018000EC80FD800E811F819101281B390BB90184
:1001900037FF04C066277727621B730B6032710537
:1001A0000CF061C0121613066CF537014801062EDB
:1001B00004C096948794779467940A94D2F721E0C8
:1001C00030E040E050E004C0220F331F441F551FB1
:1001D0006A95D2F721503040404050402E213F21B7
:1001E00040235123211531054105510521F021E01E
:1001F00030E040E050E079018A01E628F72808293C
:1002000019293CC0232BD1F1260E371E350146019A
:10021000062E04C096948794779467940A94D2F734
:1002200021E030E040E050E004C0220F331F441FC3
:10023000551F6A95D2F721503040404050402A2146
:100240003B214C215D21211531054105510521F04E
:1002500021E030E040E050E059016A01A628B728CB
:10026000C828D9280BC0821593052CF01C01AA249C
:10027000BB24650103C0EE24FF24870111969C91E5
:10028000D20111968C91981709F445C0992339F041
:10029000A80197012A193B094C095D0906C0A6016E
:1002A00095012E193F09400B510B57FD08C01182D3
:1002B0003382228224833583468357831DC081E0A5
:1002C00081833382228288279927DC01821B930B4A
:1002D000A40BB50B84839583A683B7830DC0220F2F
:1002E000331F441F551F24833583468357838281E0
:1002F000938101979383828324813581468157813D
:10030000DA01C9010197A109B1098F5F9F4FAF4F72
:10031000BF4328F30BC0918333822282EA0CFB1C7B
:100320000C1D1D1DE482F5820683178383E0808304
:10033000248135814681578157FF1AC0C901AA27F8
:1003400097FDA095BA2F81709070A070B0705695EF
:10035000479537952795822B932BA42BB52B848318
:100360009583A683B7838281938101969383828349
:10037000DF0101C0D201CD01CDB7DEB7E2E10C94BF
:10038000C61FA0E2B0E0E7ECF1E00C94B61F698371
:100390007A838B839C832D833E834F835887E9E048
:1003A000EE2EF12CEC0EFD1ECE010196B7010E943F
:1003B000A4068E010F5E1F4FCE010596B8010E9464
:1003C000A4068A8991E089278A8BC701B801AE010A
:1003D000475E5F4F0E9475000E94CF05A096E6E041
:1003E0000C94D21FA0E2B0E0E8EFF1E00C94B61F4D
:1003F00069837A838B839C832D833E834F835887C5
:10040000F9E0EF2EF12CEC0EFD1ECE010196B701A6
:100410000E94A4068E010F5E1F4FCE010596B80103
:100420000E94A406C701B801AE01475E5F4F0E945B
:1004300075000E94CF05A096E6E00C94D21FA0E2C2
:10044000B0E0E5E2F2E00C94AA1F69837A838B8323
:100450009C832D833E834F835887CE010196BE0136
:10046000675F7F4F0E94A406CE010596BE016F5EB6
:100470007F4F0E94A4069985923088F08989823046
:10048000C8F0943019F4823051F404C0843029F457
:10049000923081F487EA90E0C6C0923049F420E0BF
:1004A0009A858A89981321E02A87CE010996BBC0D4
:1004B000823049F420E09A858A89981321E02A8BBA
:1004C000CE014196B0C02D843E844F8458886D88FB
:1004D0007E888F88988CEE24FF248701AA24BB2471
:1004E000650140E050E060E070E0E0E0F0E0C10174
:1004F00081709070892BE9F0E60CF71C081D191D1E
:100500009A01AB012A0D3B1D4C1D5D1D80E090E062
:10051000A0E0B0E0E614F7040805190520F481E036
:1005200090E0A0E0B0E0BA01A901480F591F6A1F8E
:100530007B1FAA0CBB1CCC1CDD1C97FE08C081E0F5
:1005400090E0A0E0B0E0A82AB92ACA2ADB2A3196B6
:10055000E032F10549F0660C771C881C991C569412
:10056000479437942794C3CFFA85EA892B893C892D
:100570008B859C85280F391F2E5F3F4F17C0CA01FE
:1005800081709070892B61F016950795F794E79428
:1005900080E090E0A0E0B0E8E82AF92A0A2B1B2BC3
:1005A00076956795579547952F5F3F4F77FDE7CF36
:1005B0000CC0440F551F661F771F17FD4160EE0CDE
:1005C000FF1C001F111F21503040403090E05907A0
:1005D00090E0690790E4790760F32B8F3C8FDB0193
:1005E000CA018F779070A070B07080349105A1051A
:1005F000B10561F447FD0AC0E114F10401051105DC
:1006000029F0405C5F4F6F4F7F4F40781A8EFE1786
:1006100011F081E08A8F4D8F5E8F6F8F78A383E01A
:10062000898FCE0149960E94CF05A096E2E10C94F5
:10063000C61FA8E1B0E0EFE1F3E00C94B21F6983BC
:100640007A838B839C832D833E834F835887B9E0C5
:10065000EB2EF12CEC0EFD1ECE010196B7010E948F
:10066000A4068E010F5E1F4FCE010596B8010E94B1
:10067000A4062985223008F47EC03989323010F46E
:10068000B8017CC08A859A8989278A87243011F02D
:10069000223031F4231709F06EC067EA70E06EC0B3
:1006A000343039F41D861E861F86188A1C861B86E8
:1006B00004C0323021F484E08987B7015FC02B8504
:1006C0003C858B899C89281B390B3C872B87ED84C3
:1006D000FE840F851889AD88BE88CF88D88CEA142F
:1006E000FB040C051D0540F4EE0CFF1C001F111F40
:1006F000215030403C872B8720E030E040E050E044
:1007000080E090E0A0E0B0E460E070E0EA14FB0478
:100710000C051D0540F0282B392B4A2B5B2BEA18C2
:10072000FB080C091D09B695A79597958795EE0CC2
:10073000FF1C001F111F6F5F7F4F6F31710531F775
:10074000DA01C9018F779070A070B0708034910584
:10075000A105B10561F427FD0AC0E114F10401050A
:10076000110529F0205C3F4F4F4F5F4F20782D87B8
:100770003E874F87588BBE01675F7F4FCB010E943A
:10078000CF056896EAE00C94CE1FA8E1B0E0EBEC50
:10079000F3E00C94B61F69837A838B839C832D834B
:1007A0003E834F83588789E0E82EF12CEC0EFD1E26
:1007B000CE010196B7010E94A4068E010F5E1F4F65
:1007C000CE010596B8010E94A4068985823040F0CA
:1007D0008989823028F0C701B8010E941C0701C036
:1007E0008FEF6896E6E00C94D21FA8E1B0E0EBEF43
:1007F000F3E00C94B61F69837A838B839C832D83EB
:100800003E834F83588789E0E82EF12CEC0EFD1EC5
:10081000CE010196B7010E94A4068E010F5E1F4F04
:10082000CE010596B8010E94A4068985823040F069
:100830008989823028F0C701B8010E941C0701C0D5
:100840008FEF6896E6E00C94D21FA8E1B0E0EBE2EF
:10085000F4E00C94B61F69837A838B839C832D8389
:100860003E834F83588789E0E82EF12CEC0EFD1E65
:10087000CE010196B7010E94A4068E010F5E1F4FA4
:10088000CE010596B8010E94A4068985823040F009
:100890008989823028F0C701B8010E941C0701C075
:1008A00081E06896E6E00C94D21FA8E0B0E0EBE5AA
:1008B000F4E00C94B31F9B01AC0183E08983DA015F
:1008C000C9018827B7FD83959927AA27BB27B82E8A
:1008D000211531054105510519F482E089833AC09B
:1008E0008823A9F0203080E0380780E0480780E8BE
:1008F000580729F460E070E080E09FEC30C0EE24FF
:10090000FF248701E21AF30A040B150B02C07901D8
:100910008A018EE1C82ED12CDC82CB82ED82FE8250
:100920000F831887C801B7010E9480050197181628
:10093000190684F4082E04C0EE0CFF1C001F111FC2
:100940000A94D2F7ED82FE820F831887C81AD90A5B
:10095000DC82CB82BA82CE0101960E94CF05289616
:10096000E9E00C94CF1FACE0B0E0E9EBF4E00C94CC
:10097000BA1F69837A838B839C83CE010196BE0163
:100980006B5F7F4F0E94A4068D81823061F18230BF
:1009900050F1843021F48E81882351F12EC02F81B3
:1009A000388537FD20C06E812F3131051CF066235C
:1009B000F9F023C08EE190E0821B930B29853A85E4
:1009C0004B855C8504C056954795379527958A9544
:1009D000D2F76623B1F050954095309521953F4F61
:1009E0004F4F5F4F0EC020E030E040E050E009C0C4
:1009F0002FEF3FEF4FEF5FE704C020E030E040E033
:100A000050E8B901CA012C96E2E00C94D61FA8E088
:100A1000B0E0EDE0F5E00C94B21F7B018C016115B4
:100A200071058105910519F482E0898360C083E036
:100A300089838EE1C82ED12CDC82CB82ED82FE82AE
:100A40000F831887C801B7010E948005FC01319708
:100A5000F7FF3BC0222733272E1B3F0B57016801AE
:100A6000022E04C0D694C794B794A7940A94D2F7E0
:100A700040E050E060E070E081E090E0A0E0B0E0B5
:100A800004C0880F991FAA1FBB1F2A95D2F7019790
:100A9000A109B1098E219F21A023B1230097A105AF
:100AA000B10521F041E050E060E070E04A295B29A7
:100AB0006C297D294D835E836F8378878EE190E07A
:100AC0008E1B9F0B9C838B8312C0309781F00E2E60
:100AD00004C0EE0CFF1C001F111F0A94D2F7ED8218
:100AE000FE820F831887CE1ADF0ADC82CB821A823D
:100AF000CE0101960E94CF052896EAE00C94CE1F05
:100B0000EF92FF920F931F937B018C0180E0E81618
:100B100080E0F80681E0080780E0180788F48FEF8E
:100B2000E816F1040105110531F028F088E090E0A5
:100B3000A0E0B0E017C080E090E0A0E0B0E012C01C
:100B400080E0E81680E0F80680E0080781E01807FA
:100B500028F088E190E0A0E0B0E004C080E190E0FF
:100B6000A0E0B0E020E230E040E050E0281B390B8C
:100B70004A0B5B0B04C016950795F794E7948A958A
:100B8000D2F7F701E155FF4F8081281B3109410958
:100B90005109C9011F910F91FF90EF900895DF92C5
:100BA000EF92FF920F931F93FC01E480F580068182
:100BB0001781D1808081823048F480E090E0A0E10C
:100BC000B0E0E82AF92A0A2B1B2BA5C0843009F4CF
:100BD0009FC0823021F4EE24FF24870105C0E11478
:100BE000F1040105110519F4E0E0F0E096C062811E
:100BF00073819FEF623879070CF05BC022E83FEF0A
:100C0000261B370B2A3131052CF020E030E040E084
:100C100050E02AC0B801A701022E04C0769567955E
:100C2000579547950A94D2F781E090E0A0E0B0E0B4
:100C300004C0880F991FAA1FBB1F2A95D2F70197DE
:100C4000A109B1098E219F21A023B1230097A105FD
:100C5000B10521F081E090E0A0E0B0E09A01AB01A5
:100C6000282B392B4A2B5B2BDA01C9018F77907027
:100C7000A070B07080349105A105B10539F427FF4B
:100C800009C0205C3F4F4F4F5F4F04C0215C3F4F76
:100C90004F4F5F4FE0E0F0E02030A0E03A07A0E0E7
:100CA0004A07A0E45A0710F0E1E0F0E079018A0178
:100CB00027C06038710564F5FB01E158FF4FD8018A
:100CC000C7018F779070A070B07080349105A10536
:100CD000B10539F4E7FE0DC080E490E0A0E0B0E09B
:100CE00004C08FE390E0A0E0B0E0E80EF91E0A1F18
:100CF0001B1F17FF05C016950795F794E7943196CB
:100D000087E016950795F794E7948A95D1F705C083
:100D1000EE24FF248701EFEFF0E06E2F6795662742
:100D20006795902F9F77D794DD24D7948E2F869543
:100D3000492F462B582F5D29B701CA011F910F91EA
:100D4000FF90EF90DF900895FC01DB01408151811D
:100D50002281622F6F7770E0221F2227221F93814A
:100D6000892F880F822B282F30E0991F9927991FF0
:100D700011969C93119721153105A9F5411551053F
:100D80006105710511F482E037C082E89FEF139688
:100D90009C938E9312979A01AB0167E0220F331F49
:100DA000441F551F6A95D1F783E08C930DC0220F25
:100DB000331F441F551F12968D919C9113970197D5
:100DC00013969C938E931297203080E0380780E032
:100DD000480780E4580758F314962D933D934D939C
:100DE0005C93179708952F3F310579F4411551050C
:100DF0006105710519F484E08C93089564FF03C0C4
:100E000081E08C9312C01C9210C02F573040139673
:100E10003C932E93129783E08C9387E0440F551FE9
:100E2000661F771F8A95D1F7706414964D935D9372
:100E30006D937C93179708951F93DC01FB019C91A0
:100E4000923008F447C08081823008F443C0943067
:100E500051F411961C91843099F58181682F70E0CE
:100E6000611B71093FC0843021F0923031F482302F
:100E7000B9F18181882389F12DC011961C911197B8
:100E80008230F1F081811817D9F412962D913C919E
:100E90001397828193818217930794F0281739075B
:100EA000BCF014968D919D910D90BC91A02D248144
:100EB000358146815781281739074A075B0718F49F
:100EC000112341F00AC082179307A407B50740F425
:100ED000112319F061E070E005C06FEF7FEF02C0F1
:100EE00060E070E0CB011F910895DF93CF93CDB701
:100EF000DEB7A6E2B0E0E6E2F0E0808180628C93AB
:100F0000A6E2B0E0E6E2F0E0808188608C93A6E2A1
:100F1000B0E0E6E2F0E0808187608C93A7E2B0E089
:100F2000E7E2F0E080818F7D8C93A7E2B0E0E7E21A
:100F3000F0E0808180648C93A7E2B0E0E7E2F0E02B
:100F4000808180688C93A7E2B0E0E7E2F0E08081E6
:100F5000807E8C93A6E2B0E0E6E2F0E080818068DB
:100F60008C93A6E2B0E0E6E2F0E0808180648C93AE
:100F7000AFE5B0E0EFE5F0E0808180688C93CF9141
:100F8000DF910895DF93CF9300D00F92CDB7DEB7F6
:100F900089838981282F30E03B832A838A819B8142
:100FA0008330910509F445C02A813B812430310505
:100FB0007CF48A819B818130910549F12A813B81B2
:100FC000223031056CF58A819B810097C1F05DC0AC
:100FD0002A813B812530310509F43DC08A819B81FE
:100FE000853091057CF12A813B8126303105E1F184
:100FF0008A819B818730910509F43FC046C0A7E2F2
:10100000B0E0E7E2F0E08081807E8C933EC0A7E212
:10101000B0E0E7E2F0E08081807E81608C9335C0B3
:10102000A7E2B0E0E7E2F0E08081807E82608C930E
:101030002CC0A7E2B0E0E7E2F0E08081807E836030
:101040008C9323C0A7E2B0E0E7E2F0E08081807EED
:1010500084608C931AC0A7E2B0E0E7E2F0E0808100
:10106000807E85608C9311C0A7E2B0E0E7E2F0E0FB
:101070008081807E86608C9308C0A7E2B0E0E7E2C2
:10108000F0E08081807E87608C93A6E2B0E0E6E2AB
:10109000F0E0808180648C9380E090E00F900F906E
:1010A0000F90CF91DF910895DF93CF93CDB7DEB747
:1010B0008091B2019091B3019370CF91DF91089527
:1010C0001F920F920FB60F9211248F939F93EF935D
:1010D000FF93DF93CF93CDB7DEB7E091AF01F091EF
:1010E000B001808191819093B3018093B201CF913F
:1010F000DF91FF91EF919F918F910F900FBE0F9015
:101100001F901895DF93CF9300D000D0CDB7DEB7F6
:1011100089836A838981282F30E03C832B838B81EC
:101120009C8181309105D1F02B813C8122303105A9
:101130002CF48B819C81009761F01EC02B813C8137
:101140002230310581F08B819C818330910581F0C3
:1011500013C0EAE3F0E08A8180830EC0E7E3F0E0A9
:101160008A81808309C0E4E3F0E08A81808304C03F
:10117000E1E3F0E08A8180830F900F900F900F9051
:10118000CF91DF910895DF93CF9300D000D0CDB7FA
:10119000DEB789836A838981282F30E03C832B83E3
:1011A0008B819C8181309105D1F02B813C81223053
:1011B00031052CF48B819C81009761F01EC02B813E
:1011C0003C812230310581F08B819C8183309105F7
:1011D00081F013C0EBE3F0E08A8180830EC0E8E386
:1011E000F0E08A81808309C0E5E3F0E08A818083B2
:1011F00004C0E2E3F0E08A8180830F900F900F90AB
:101200000F90CF91DF910895DF93CF9300D000D05E
:10121000CDB7DEB78A8319828A81282F30E03C83DC
:101220002B838B819C8181309105D1F02B813C8176
:10123000223031052CF48B819C81009761F01EC017
:101240002B813C812230310581F08B819C81833060
:10125000910581F013C0E9E3F0E0808189830EC03D
:10126000E6E3F0E08081898309C0E3E3F0E0808178
:10127000898304C0E0E3F0E08081898389810F9055
:101280000F900F900F90CF91DF910895DF93CF9340
:1012900000D000D00F92CDB7DEB789836A834B832D
:1012A0008981282F30E03D832C838C819D81813082
:1012B000910509F447C02C813D81223031052CF481
:1012C0008C819D81009771F0CBC02C813D812230B3
:1012D000310509F467C08C819D818330910509F443
:1012E00091C0BEC08B818823A9F4AAE3B0E0EAE3F1
:1012F000F0E08081482F8A81282F30E081E090E063
:10130000022E02C0880F991F0A94E2F78095842369
:101310008C93A6C08B81813009F0A2C0AAE3B0E013
:10132000EAE3F0E08081482F8A81282F30E081E0D5
:1013300090E0022E02C0880F991F0A94E2F7842BD6
:101340008C938EC08B818823A9F4A7E3B0E0E7E3F8
:10135000F0E08081482F8A81282F30E081E090E002
:10136000022E02C0880F991F0A94E2F78095842309
:101370008C9376C08B81813009F072C0A7E3B0E016
:10138000E7E3F0E08081482F8A81282F30E081E078
:1013900090E0022E02C0880F991F0A94E2F7842B76
:1013A0008C935EC08B818823A9F4A4E3B0E0E4E3CE
:1013B000F0E08081482F8A81282F30E081E090E0A2
:1013C000022E02C0880F991F0A94E2F780958423A9
:1013D0008C9346C08B81813009F042C0A4E3B0E019
:1013E000E4E3F0E08081482F8A81282F30E081E01B
:1013F00090E0022E02C0880F991F0A94E2F7842B16
:101400008C932EC08B818823A9F4A1E3B0E0E1E3A3
:10141000F0E08081482F8A81282F30E081E090E041
:10142000022E02C0880F991F0A94E2F78095842348
:101430008C9316C08B81813099F4A1E3B0E0E1E395
:10144000F0E08081482F8A81282F30E081E090E011
:10145000022E02C0880F991F0A94E2F7842B8C9306
:101460000F900F900F900F900F90CF91DF910895F4
:10147000DF93CF9300D000D0CDB7DEB789836A83E6
:10148000A0E5B0E0E0E5F0E080818B7F8C9389817E
:10149000282F30E03C832B834B815C814130510508
:1014A00009F44BC08B819C818230910534F42B81EF
:1014B0003C812115310571F0D7C04B815C814230F0
:1014C000510509F46DC08B819C818330910509F42D
:1014D0009AC0CAC0EAE3F0E08081482F50E08A81D8
:1014E000282F30E081E090E002C0880F991F2A95F4
:1014F000E2F79A01282339238A81882F90E0A901F5
:1015000002C0559547958A95E2F7CA01009709F000
:10151000ABC0ABE3B0E0EBE3F0E08081482F8A8121
:10152000282F30E081E090E0022E02C0880F991F42
:101530000A94E2F7842B8C9397C0E7E3F0E0808174
:10154000482F50E08A81282F30E081E090E002C0EF
:10155000880F991F2A95E2F79A01282339238A8157
:10156000882F90E0A90102C0559547958A95E2F72A
:10157000CA01009709F078C0A8E3B0E0E8E3F0E022
:101580008081482F8A81282F30E081E090E0022E70
:1015900002C0880F991F0A94E2F7842B8C9364C0D1
:1015A000E4E3F0E08081482F50E08A81282F30E08A
:1015B00081E090E002C0880F991F2A95E2F79A0116
:1015C000282339238A81882F90E0A90102C05595EC
:1015D00047958A95E2F7CA01009709F045C0A5E34F
:1015E000B0E0E5E3F0E08081482F8A81282F30E0E9
:1015F00081E090E0022E02C0880F991F0A94E2F762
:10160000842B8C9331C0E1E3F0E08081482F50E0DF
:101610008A81282F30E081E090E002C0880F991F76
:101620002A95E2F79A01282339238A81882F90E0AE
:10163000A90102C0559547958A95E2F7CA0100971E
:1016400099F4A2E3B0E0E2E3F0E08081482F8A81E0
:10165000282F30E081E090E0022E02C0880F991F11
:101660000A94E2F7842B8C930F900F900F900F90B9
:10167000CF91DF910895DF93CF9300D000D00F92E8
:10168000CDB7DEB789836A834B838981282F30E009
:101690003D832C838C819D818130910509F447C065
:1016A0002C813D81223031052CF48C819D81009765
:1016B00071F0CBC02C813D812230310509F467C027
:1016C0008C819D818330910509F491C0BEC08B81CE
:1016D0008130A1F4ABE3B0E0EBE3F0E08081482F90
:1016E0008A81282F30E081E090E0022E02C0880F2E
:1016F000991F0A94E2F7842B8C93A7C08B818823CF
:1017000009F0A3C0ABE3B0E0EBE3F0E08081482F49
:101710008A81282F30E081E090E0022E02C0880FFD
:10172000991F0A94E2F7809584238C938EC08B8155
:101730008130A1F4A8E3B0E0E8E3F0E08081482F35
:101740008A81282F30E081E090E0022E02C0880FCD
:10175000991F0A94E2F7842B8C9377C08B8188239E
:1017600009F073C0A8E3B0E0E8E3F0E08081482F1F
:101770008A81282F30E081E090E0022E02C0880F9D
:10178000991F0A94E2F7809584238C935EC08B8125
:101790008130A1F4A5E3B0E0E5E3F0E08081482FDB
:1017A0008A81282F30E081E090E0022E02C0880F6D
:1017B000991F0A94E2F7842B8C9347C08B8188236E
:1017C00009F043C0A5E3B0E0E5E3F0E08081482FF5
:1017D0008A81282F30E081E090E0022E02C0880F3D
:1017E000991F0A94E2F7809584238C932EC08B81F5
:1017F0008130A1F4A2E3B0E0E2E3F0E08081482F81
:101800008A81282F30E081E090E0022E02C0880F0C
:10181000991F0A94E2F7842B8C9317C08B8188233D
:10182000A1F4A2E3B0E0E2E3F0E08081482F8A81F6
:10183000282F30E081E090E0022E02C0880F991F2F
:101840000A94E2F7809584238C930F900F900F9069
:101850000F900F90CF91DF910895DF93CF9300D039
:1018600000D00F92CDB7DEB78A836B8319828A814D
:10187000282F30E03D832C834C815D814130510520
:10188000B1F18C819D818230910534F42C813D81B0
:101890002115310571F084C04C815D8142305105C4
:1018A00009F443C08C819D818330910509F45BC0AC
:1018B00077C0E9E3F0E08081482F50E08B81282F4A
:1018C00030E081E090E002C0880F991F2A95E2F78E
:1018D0009A01282339238B81882F90E0A90102C027
:1018E000559547958A95E2F7CA01898359C0E6E381
:1018F000F0E08081482F50E08B81282F30E081E09C
:1019000090E002C0880F991F2A95E2F79A012823D8
:1019100039238B81882F90E0A90102C05595479506
:101920008A95E2F7CA0189833BC0E3E3F0E0808156
:10193000482F50E08B81282F30E081E090E002C0FA
:10194000880F991F2A95E2F79A01282339238B8162
:10195000882F90E0A90102C0559547958A95E2F736
:10196000CA0189831DC0E0E3F0E08081482F50E088
:101970008B81282F30E081E090E002C0880F991F12
:101980002A95E2F79A01282339238B81882F90E04A
:10199000A90102C0559547958A95E2F7CA01898346
:1019A00089810F900F900F900F900F90CF91DF9142
:1019B0000895DF93CF9300D0CDB7DEB79A838983A4
:1019C00089819A819093B5018093B4010F900F9013
:1019D000CF91DF910895DF93CF93CDB7DEB783E04A
:1019E00062E040E00E944609AFE5B0E0EFE5F0E0DC
:1019F000808180688C93A5E5B0E0E5E5F0E080812A
:101A000081608C93A5E5B0E0E5E5F0E0808182603F
:101A10008C93CF91DF9108951F920F920FB60F9282
:101A200011242F933F934F935F936F937F938F93E3
:101A30009F93AF93BF93EF93FF93DF93CF93CDB774
:101A4000DEB7E091B401F091B5010995CF91DF9136
:101A5000FF91EF91BF91AF919F918F917F916F9186
:101A60005F914F913F912F910F900FBE0F901F905C
:101A70001895DF93CF9300D0CDB7DEB79A838983D3
:101A800089819A819093B7018093B6010F900F904E
:101A9000CF91DF910895DF93CF93CDB7DEB783E089
:101AA00063E040E00E944609AFE5B0E0EFE5F0E01A
:101AB000808180688C93A5E5B0E0E5E5F0E0808169
:101AC00084608C93A5E5B0E0E5E5F0E08081886076
:101AD0008C93ABE5B0E0EBE5F0E0808180688C931F
:101AE000CF91DF9108951F920F920FB60F9211249C
:101AF0002F933F934F935F936F937F938F939F9316
:101B0000AF93BF93EF93FF93DF93CF93CDB7DEB740
:101B1000E091B601F091B7010995CF91DF91FF9166
:101B2000EF91BF91AF919F918F917F916F915F9155
:101B30004F913F912F910F900FBE0F901F901895CE
:101B4000DF93CF9300D0CDB7DEB79A8389838981A5
:101B50009A819093B9018093B8010F900F90CF9123
:101B6000DF910895DF93CF93CDB7DEB781E062E0D8
:101B700040E00E944609AFE5B0E0EFE5F0E080818B
:101B800080688C93A4E5B0E0E4E5F0E080818064B7
:101B90008C93ABE5B0E0EBE5F0E0808180628C9364
:101BA000CF91DF9108951F920F920FB60F921124DB
:101BB0002F933F934F935F936F937F938F939F9355
:101BC000AF93BF93EF93FF93DF93CF93CDB7DEB780
:101BD000E091B801F091B9010995CF91DF91FF91A2
:101BE000EF91BF91AF919F918F917F916F915F9195
:101BF0004F913F912F910F900FBE0F901F9018950E
:101C0000DF93CF93CDB7DEB782E064E041E00E947E
:101C1000460982E065E041E00E94460982E066E014
:101C200041E00E94460982E067E041E00E944609E7
:101C300083E064E040E00E94460983E065E040E024
:101C40000E94460983E066E040E00E94460983E086
:101C500067E040E00E94460983E064E00E94380AA1
:101C600083E065E00E94380A83E066E00E94380A5B
:101C700083E067E00E94380A82E064E041E00E946D
:101C80003B0B82E065E041E00E943B0B82E066E0B6
:101C900041E00E943B0B82E067E041E00E943B0B89
:101CA000CF91DF910895DF93CF9300D00F92CDB7FE
:101CB000DEB71B821A828FEF89831B8260C082E0AD
:101CC00064E041E00E943B0B82E065E041E00E945D
:101CD0003B0B82E066E041E00E943B0B82E067E064
:101CE00041E00E943B0B8B81982F9C5F82E0692F23
:101CF00040E00E943B0B1A8239C08B81882F90E014
:101D0000880F991F880F991F982F8A81890F8F5FDD
:101D1000898309C08091BA019091BB01019690938B
:101D2000BB018093BA018091BA019091BB018436C6
:101D3000910548F48A81982F9C5F83E0692F0E9467
:101D40002D0C882339F38091BA019091BB01843620
:101D5000910511F08FEF89831092BB011092BA01A7
:101D600089818F3F31F48A818F5F8A838A818430B1
:101D700020F289818F3F39F48B818F5F8B838B8138
:101D8000843008F49CCF89810F900F900F90CF91F1
:101D9000DF910895DF93CF93CDB7DEB7AA970FB643
:101DA000F894DEBF0FBECDBF80E067E041E00E9447
:101DB000460980E062E041E00E94460980E066E07A
:101DC00041E00E94460981E06FEF0E94820883E0B3
:101DD0000E945E1080E090E0A0EAB0E48FA398A794
:101DE000A9A7BAA76FA178A589A59AA520E030E098
:101DF0004AEF54E40E941F02DC01CB018BA39CA399
:101E0000ADA3BEA36BA17CA18DA19EA120E030E07B
:101E100040E85FE30E94250488232CF481E090E0F1
:101E20009AA389A33FC06BA17CA18DA19EA120E0B4
:101E30003FEF4FE757E40E94C50318164CF56FA11A
:101E400078A589A59AA520E030E040E251E40E94FF
:101E50001F02DC01CB01BC01CD010E944900DC0165
:101E6000CB019AA389A30FC088EC90E098A38F8F31
:101E70008F8D98A10197F1F798A38F8F89A19AA1CF
:101E800001979AA389A389A19AA1009769F714C021
:101E90006BA17CA18DA19EA10E944900DC01CB0118
:101EA0009AA389A389A19AA19E8F8D8F8D8D9E8DD6
:101EB0000197F1F79E8F8D8F83E00E945E1080E086
:101EC00090E0A0E8BFE3898F9A8FAB8FBC8F698DBC
:101ED0007A8D8B8D9C8D20E030E04AEF54E40E9497
:101EE0001F02DC01CB018D8B9E8BAF8BB88F6D8970
:101EF0007E898F89988D20E030E040E85FE30E9482
:101F0000250488232CF481E090E09C8B8B8B3FC0D0
:101F10006D897E898F89988D20E03FEF4FE757E4E8
:101F20000E94C50318164CF5698D7A8D8B8D9C8D9A
:101F300020E030E040E251E40E941F02DC01CB01CE
:101F4000BC01CD010E944900DC01CB019C8B8B8B35
:101F50000FC088EC90E09A8B898B89899A890197C8
:101F6000F1F79A8B898B8B899C8901979C8B8B8B42
:101F70008B899C89009769F714C06D897E898F8948
:101F8000988D0E944900DC01CB019C8B8B8B8B8947
:101F90009C89988B8F878F8598890197F1F7988B0B
:101FA0008F8783E00E945E1080E090E0A0EAB0E4BA
:101FB0008B879C87AD87BE876B857C858D859E854D
:101FC00020E030E04AEF54E40E941F02DC01CB0124
:101FD0008F839887A987BA876F81788589859A8545
:101FE00020E030E040E85FE30E94250488232CF4E1
:101FF00081E090E09E838D833FC06F8178858985E5
:102000009A8520E03FEF4FE757E40E94C50318167A
:102010004CF56B857C858D859E8520E030E040E227
:1020200051E40E941F02DC01CB01BC01CD010E94E2
:102030004900DC01CB019E838D830FC088EC90E0CA
:102040009C838B838B819C810197F1F79C838B838D
:102050008D819E8101979E838D838D819E810097C6
:1020600069F714C06F81788589859A850E94490037
:10207000DC01CB019E838D838D819E819A83898330
:1020800089819A810197F1F79A83898382E00E947E
:102090005E1088E00E945E1081E00E945E1086E083
:1020A0000E945E108CE00E945E10AA960FB6F89413
:1020B000DEBF0FBECDBFCF91DF9108950F931F9369
:1020C000DF93CF93CDB7DEB7C157D0400FB6F894AA
:1020D000DEBF0FBECDBFFE01EF58FF4F808380E013
:1020E00067E040E00E943B0B80E062E040E00E943D
:1020F0003B0BFE01E359FF4F80E090E0A0E0B0E42D
:1021000080839183A283B3838E0107591F4FFE0101
:10211000E359FF4F608171818281938120E030E03B
:102120004AEF54E40E941F02DC01CB01F8018083D6
:102130009183A283B383FE01E759FF4F60817181D0
:102140008281938120E030E040E85FE30E94250433
:10215000882344F4FE01E959FF4F81E090E0918328
:10216000808364C0FE01E759FF4F608171818281E5
:10217000938120E03FEF4FE757E40E94C503181614
:102180000CF043C0FE01E359FF4F608171818281F1
:10219000938120E030E040E251E40E941F02DC0124
:1021A000CB018E0109591F4FBC01CD010E9449008E
:1021B000DC01CB01F801918380831FC0FE01EB5944
:1021C000FF4F88EC90E091838083FE01EB59FF4F35
:1021D000808191810197F1F7FE01EB59FF4F9183C7
:1021E0008083DE01A959BF4FFE01E959FF4F80816D
:1021F0009181019711969C938E93FE01E959FF4FAF
:10220000808191810097D1F627C08E0109591F4F17
:10221000FE01E759FF4F60817181828193810E94A5
:102220004900DC01CB01F80191838083DE01AD59C7
:10223000BF4FFE01E959FF4F808191818D939C939F
:10224000FE01ED59FF4F808191810197F1F7FE0169
:10225000ED59FF4F9183808380E066E041E00E946A
:102260003B0BFE01E15AFF4F80E090E0A0E0B0E4BC
:1022700080839183A283B3838E01055A1F4FFE0191
:10228000E15AFF4F608171818281938120E030E0CB
:102290004AEF54E40E941F02DC01CB01F801808365
:1022A0009183A283B383FE01E55AFF4F6081718160
:1022B0008281938120E030E040E85FE30E942504C2
:1022C000882344F4FE01E75AFF4F81E090E09183B8
:1022D000808364C0FE01E55AFF4F60817181828175
:1022E000938120E03FEF4FE757E40E94C5031816A3
:1022F0000CF043C0FE01E15AFF4F60817181828181
:10230000938120E030E040E251E40E941F02DC01B2
:10231000CB018E01075A1F4FBC01CD010E9449001D
:10232000DC01CB01F801918380831FC0FE01E95AD3
:10233000FF4F88EC90E091838083FE01E95AFF4FC4
:10234000808191810197F1F7FE01E95AFF4F918356
:102350008083DE01A75ABF4FFE01E75AFF4F8081FD
:102360009181019711969C938E93FE01E75AFF4F3E
:10237000808191810097D1F627C08E01075A1F4FA7
:10238000FE01E55AFF4F60817181828193810E9435
:102390004900DC01CB01F80191838083DE01AB5A57
:1023A000BF4FFE01E75AFF4F808191818D939C932F
:1023B000FE01EB5AFF4F808191810197F1F7FE01F9
:1023C000EB5AFF4F91838083FE01EF58FF4F81E06E
:1023D00060810E94C308FE01EF5AFF4F80E090E049
:1023E000A0E0B0E480839183A283B3838E01035B7A
:1023F0001F4FFE01EF5AFF4F6081718182819381EF
:1024000020E030E04AEF54E40E941F02DC01CB01DF
:10241000F80180839183A283B383FE01E35BFF4FC6
:10242000608171818281938120E030E040E85FE348
:102430000E942504882344F4FE01E55BFF4F81E000
:1024400090E09183808364C0FE01E35BFF4F608175
:1024500071818281938120E03FEF4FE757E40E9432
:10246000C50318160CF043C0FE01EF5AFF4F608100
:1024700071818281938120E030E040E251E40E944A
:102480001F02DC01CB018E01055B1F4FBC01CD019A
:102490000E944900DC01CB01F801918380831FC0B9
:1024A000FE01E75BFF4F88EC90E091838083FE01A3
:1024B000E75BFF4F808191810197F1F7FE01E75BB8
:1024C000FF4F91838083DE01A55BBF4FFE01E55B7B
:1024D000FF4F80819181019711969C938E93FE010D
:1024E000E55BFF4F808191810097D1F627C08E0177
:1024F000055B1F4FFE01E35BFF4F608171818281AD
:1025000093810E944900DC01CB01F8019183808313
:10251000DE01A95BBF4FFE01E55BFF4F808191812A
:102520008D939C93FE01E95BFF4F80819181019720
:10253000F1F7FE01E95BFF4F9183808380E066E065
:1025400040E00E943B0BFE01ED5BFF4F80E090E01E
:10255000A0E0B0E480839183A283B3838E01015C09
:102560001F4FFE01ED5BFF4F60817181828193817E
:1025700020E030E04AEF54E40E941F02DC01CB016E
:10258000F80180839183A283B383FE01FF9660816B
:1025900071818281938120E030E040E85FE30E9416
:1025A000250488232CF481E090E09EAF8DAF46C0D7
:1025B000FE01FF96608171818281938120E03FEF6F
:1025C0004FE757E40E94C503181664F5FE01ED5B62
:1025D000FF4F608171818281938120E030E040E291
:1025E00051E40E941F02DC01CB01BC01CD010E941D
:1025F0004900DC01CB019EAF8DAF0FC088EC90E0AD
:102600009CAF8BAF8BAD9CAD0197F1F79CAF8BAFBF
:102610008DAD9EAD01979EAF8DAF8DAD9EAD0097F8
:1026200069F716C0FE01FF966081718182819381F6
:102630000E944900DC01CB019EAF8DAF8DAD9EADF8
:102640009AAF89AF89AD9AAD0197F1F79AAF89AF8B
:1026500080E067E040E00E943B0B80E062E040E009
:102660000E943B0B80E090E0A0E0B0E48DAB9EAB1D
:10267000AFABB8AF6DA97EA98FA998AD20E030E0CF
:102680004AEF54E40E941F02DC01CB0189AB9AABF4
:10269000ABABBCAB69A97AA98BA99CA920E030E0BF
:1026A00040E85FE30E94250488232CF481E090E059
:1026B00098AB8FA73FC069A97AA98BA99CA920E0F4
:1026C0003FEF4FE757E40E94C50318164CF56DA97C
:1026D0007EA98FA998AD20E030E040E251E40E944D
:1026E0001F02DC01CB01BC01CD010E944900DC01CD
:1026F000CB0198AB8FA70FC088EC90E09EA78DA769
:102700008DA59EA50197F1F79EA78DA78FA598A9E6
:10271000019798AB8FA78FA598A9009769F714C068
:1027200069A97AA98BA99CA90E944900DC01CB0167
:1027300098AB8FA78FA598A99CA78BA78BA59CA5C5
:102740000197F1F79CA78BA780E066E041E00E942B
:102750003B0B80E090E0A0E0B0E48FA398A7A9A78E
:10276000BAA76FA178A589A59AA520E030E04AEF25
:1027700054E40E941F02DC01CB018BA39CA3ADA3F8
:10278000BEA36BA17CA18DA19EA120E030E040E81A
:102790005FE30E94250488232CF481E090E09AA353
:1027A00089A33FC06BA17CA18DA19EA120E03FEF3A
:1027B0004FE757E40E94C50318164CF56FA178A5A2
:1027C00089A59AA520E030E040E251E40E941F0272
:1027D000DC01CB01BC01CD010E944900DC01CB0131
:1027E0009AA389A30FC088EC90E098A38F8F8F8D58
:1027F00098A10197F1F798A38F8F89A19AA10197CA
:102800009AA389A389A19AA1009769F714C06BA123
:102810007CA18DA19EA10E944900DC01CB019AA35D
:1028200089A389A19AA19E8F8D8F8D8D9E8D0197F1
:10283000F1F79E8F8D8FFE01EF58FF4F8081982F0B
:102840009295907F81E0692F0E94C30880E090E01C
:10285000A0E0B0E4898F9A8FAB8FBC8F698D7A8DA1
:102860008B8D9C8D20E030E04AEF54E40E941F02E3
:10287000DC01CB018D8B9E8BAF8BB88F6D897E89F0
:102880008F89988D20E030E040E85FE30E942504C6
:1028900088232CF481E090E09C8B8B8B3FC06D896A
:1028A0007E898F89988D20E03FEF4FE757E40E94A3
:1028B000C50318164CF5698D7A8D8B8D9C8D20E0A3
:1028C00030E040E251E40E941F02DC01CB01BC0178
:1028D000CD010E944900DC01CB019C8B8B8B0FC08A
:1028E00088EC90E09A8B898B89899A890197F1F716
:1028F0009A8B898B8B899C8901979C8B8B8B8B897D
:102900009C89009769F714C06D897E898F89988D9D
:102910000E944900DC01CB019C8B8B8B8B899C89AD
:10292000988B8F878F8598890197F1F7988B8F8780
:1029300080E066E040E00E943B0B80E090E0A0E099
:10294000B0E48B879C87AD87BE876B857C858D8542
:102950009E8520E030E04AEF54E40E941F02DC0133
:10296000CB018F839887A987BA876F8178858985FE
:102970009A8520E030E040E85FE30E942504882348
:102980002CF481E090E09E838D833FC06F81788539
:1029900089859A8520E03FEF4FE757E40E94C50301
:1029A00018164CF56B857C858D859E8520E030E082
:1029B00040E251E40E941F02DC01CB01BC01CD01C9
:1029C0000E944900DC01CB019E838D830FC088ECFF
:1029D00090E09C838B838B819C810197F1F79C8392
:1029E0008B838D819E8101979E838D838D819E81B6
:1029F000009769F714C06F81788589859A850E9450
:102A00004900DC01CB019E838D838D819E819A8359
:102A1000898389819A810197F1F79A838983CF58B5
:102A2000DF4F0FB6F894DEBF0FBECDBFCF91DF9161
:102A30001F910F9108950F931F93DF93CF93CDB7FD
:102A4000DEB7C157D0400FB6F894DEBF0FBECDBF82
:102A5000FE01EF58FF4F808380E067E041E00E9475
:102A60003B0B80E062E040E00E943B0BFE01E3593B
:102A7000FF4F80E090E0A0E0B0E480839183A283E8
:102A8000B3838E0107591F4FFE01E359FF4F608149
:102A900071818281938120E030E04AEF54E40E940A
:102AA0001F02DC01CB01F80180839183A283B383F1
:102AB000FE01E759FF4F608171818281938120E09F
:102AC00030E040E85FE30E942504882344F4FE01DF
:102AD000E959FF4F81E090E09183808364C0FE015B
:102AE000E759FF4F608171818281938120E03FEF40
:102AF0004FE757E40E94C50318160CF043C0FE01CF
:102B0000E359FF4F608171818281938120E030E041
:102B100040E251E40E941F02DC01CB018E01095901
:102B20001F4FBC01CD010E944900DC01CB01F8011F
:102B3000918380831FC0FE01EB59FF4F88EC90E02A
:102B400091838083FE01EB59FF4F80819181019732
:102B5000F1F7FE01EB59FF4F91838083DE01A95904
:102B6000BF4FFE01E959FF4F808191810197119676
:102B70009C938E93FE01E959FF4F808191810097CC
:102B8000D1F627C08E0109591F4FFE01E759FF4FAB
:102B900060817181828193810E944900DC01CB01B7
:102BA000F80191838083DE01AD59BF4FFE01E959E1
:102BB000FF4F808191818D939C93FE01ED59FF4FD2
:102BC000808191810197F1F7FE01ED59FF4F9183CB
:102BD000808380E066E041E00E943B0BFE01E15A09
:102BE000FF4F80E090E0A0E0B0E480839183A28377
:102BF000B3838E01055A1F4FFE01E15AFF4F6081DA
:102C000071818281938120E030E04AEF54E40E9498
:102C10001F02DC01CB01F80180839183A283B3837F
:102C2000FE01E55AFF4F608171818281938120E02E
:102C300030E040E85FE30E942504882344F4FE016D
:102C4000E75AFF4F81E090E09183808364C0FE01EA
:102C5000E55AFF4F608171818281938120E03FEFCF
:102C60004FE757E40E94C50318160CF043C0FE015D
:102C7000E15AFF4F608171818281938120E030E0D1
:102C800040E251E40E941F02DC01CB018E01075A91
:102C90001F4FBC01CD010E944900DC01CB01F801AE
:102CA000918380831FC0FE01E95AFF4F88EC90E0BA
:102CB00091838083FE01E95AFF4F808191810197C2
:102CC000F1F7FE01E95AFF4F91838083DE01A75A95
:102CD000BF4FFE01E75AFF4F808191810197119606
:102CE0009C938E93FE01E75AFF4F8081918100975C
:102CF000D1F627C08E01075A1F4FFE01E55AFF4F3C
:102D000060817181828193810E944900DC01CB0145
:102D1000F80191838083DE01AB5ABF4FFE01E75A71
:102D2000FF4F808191818D939C93FE01EB5AFF4F61
:102D3000808191810197F1F7FE01EB5AFF4F91835A
:102D40008083FE01EF58FF4F81E060810E94C3083D
:102D5000FE01EF5AFF4F80E090E0A0E0B0E48083F6
:102D60009183A283B3838E01035B1F4FFE01EF5A51
:102D7000FF4F608171818281938120E030E04AEFD2
:102D800054E40E941F02DC01CB01F801808391838F
:102D9000A283B383FE01E35BFF4F60817181828177
:102DA000938120E030E040E85FE30E94250488231F
:102DB00044F4FE01E55BFF4F81E090E09183808366
:102DC00064C0FE01E35BFF4F60817181828193816A
:102DD00020E03FEF4FE757E40E94C50318160CF0C0
:102DE00043C0FE01EF5AFF4F608171818281938160
:102DF00020E030E040E251E40E941F02DC01CB0100
:102E00008E01055B1F4FBC01CD010E944900DC0112
:102E1000CB01F801918380831FC0FE01E75BFF4F68
:102E200088EC90E091838083FE01E75BFF4F808117
:102E300091810197F1F7FE01E75BFF4F918380835A
:102E4000DE01A55BBF4FFE01E55BFF4F80819181F5
:102E5000019711969C938E93FE01E55BFF4F808155
:102E600091810097D1F627C08E01055B1F4FFE01AF
:102E7000E35BFF4F60817181828193810E944900F1
:102E8000DC01CB01F80191838083DE01A95BBF4F98
:102E9000FE01E55BFF4F808191818D939C93FE0144
:102EA000E95BFF4F808191810197F1F7FE01E95BBA
:102EB000FF4F9183808380E066E040E00E943B0BFF
:102EC000FE01ED5BFF4F80E090E0A0E0B0E4808386
:102ED0009183A283B3838E01015C1F4FFE01ED5BE2
:102EE000FF4F608171818281938120E030E04AEF61
:102EF00054E40E941F02DC01CB01F801808391831E
:102F0000A283B383FE01FF966081718182819381E8
:102F100020E030E040E85FE30E94250488232CF4A1
:102F200081E090E09EAF8DAF46C0FE01FF966081CC
:102F300071818281938120E03FEF4FE757E40E9447
:102F4000C503181664F5FE01ED5BFF4F60817181CA
:102F50008281938120E030E040E251E40E941F0230
:102F6000DC01CB01BC01CD010E944900DC01CB0199
:102F70009EAF8DAF0FC088EC90E09CAF8BAF8BAD58
:102F80009CAD0197F1F79CAF8BAF8DAD9EAD0197D6
:102F90009EAF8DAF8DAD9EAD009769F716C0FE0157
:102FA000FF9660817181828193810E944900DC01DA
:102FB000CB019EAF8DAF8DAD9EAD9AAF89AF89AD80
:102FC0009AAD0197F1F79AAF89AF80E067E041E0F1
:102FD0000E943B0B80E062E040E00E943B0B80E0FF
:102FE00090E0A0E0B0E48DAB9EABAFABB8AF6DA905
:102FF0007EA98FA998AD20E030E04AEF54E40E940A
:103000001F02DC01CB0189AB9AABABABBCAB69A9AE
:103010007AA98BA99CA920E030E040E85FE30E94F8
:10302000250488232CF481E090E098AB8FA73FC063
:1030300069A97AA98BA99CA920E03FEF4FE757E443
:103040000E94C50318164CF56DA97EA98FA998ADED
:1030500020E030E040E251E40E941F02DC01CB019D
:10306000BC01CD010E944900DC01CB0198AB8FA7C8
:103070000FC088EC90E09EA78DA78DA59EA5019717
:10308000F1F79EA78DA78FA598A9019798AB8FA759
:103090008FA598A9009769F714C069A97AA98BA987
:1030A0009CA90E944900DC01CB0198AB8FA78FA59A
:1030B00098A99CA78BA78BA59CA50197F1F79CA726
:1030C0008BA780E066E041E00E943B0B80E090E04F
:1030D000A0E0B0E48FA398A7A9A7BAA76FA178A58D
:1030E00089A59AA520E030E04AEF54E40E941F022F
:1030F000DC01CB018BA39CA3ADA3BEA36BA17CA1E0
:103100008DA19EA120E030E040E85FE30E9425040D
:1031100088232CF481E090E09AA389A33FC06BA19F
:103120007CA18DA19EA120E03FEF4FE757E40E94D4
:10313000C50318164CF56FA178A589A59AA520E0BE
:1031400030E040E251E40E941F02DC01CB01BC01EF
:10315000CD010E944900DC01CB019AA389A30FC0D5
:1031600088EC90E098A38F8F8F8D98A10197F1F74D
:1031700098A38F8F89A19AA101979AA389A389A166
:103180009AA1009769F714C06BA17CA18DA19EA1A3
:103190000E944900DC01CB019AA389A389A19AA1CD
:1031A0009E8F8D8F8D8D9E8D0197F1F79E8F8D8FC8
:1031B000FE01EF58FF4F8081982F9295907F81E01C
:1031C000692F0E94C30880E090E0A0E0B0E4898FFE
:1031D0009A8FAB8FBC8F698D7A8D8B8D9C8D20E003
:1031E00030E04AEF54E40E941F02DC01CB018D8BDA
:1031F0009E8BAF8BB88F6D897E898F89988D20E0EB
:1032000030E040E85FE30E94250488232CF481E04D
:1032100090E09C8B8B8B3FC06D897E898F89988DC8
:1032200020E03FEF4FE757E40E94C50318164CF526
:10323000698D7A8D8B8D9C8D20E030E040E251E4E9
:103240000E941F02DC01CB01BC01CD010E9449009C
:10325000DC01CB019C8B8B8B0FC088EC90E09A8BB0
:10326000898B89899A890197F1F79A8B898B8B8948
:103270009C8901979C8B8B8B8B899C89009769F724
:1032800014C06D897E898F89988D0E944900DC0168
:10329000CB019C8B8B8B8B899C89988B8F878F859F
:1032A00098890197F1F7988B8F8780E066E040E07E
:1032B0000E943B0B80E090E0A0E0B0E48B879C870D
:1032C000AD87BE876B857C858D859E8520E030E04F
:1032D0004AEF54E40E941F02DC01CB018F839887E0
:1032E000A987BA876F81788589859A8520E030E043
:1032F00040E85FE30E94250488232CF481E090E0FD
:103300009E838D833FC06F81788589859A8520E073
:103310003FEF4FE757E40E94C50318164CF56B8545
:103320007C858D859E8520E030E040E251E40E945E
:103330001F02DC01CB01BC01CD010E944900DC0170
:10334000CB019E838D830FC088EC90E09C838B83A0
:103350008B819C810197F1F79C838B838D819E816A
:1033600001979E838D838D819E81009769F714C09C
:103370006F81788589859A850E944900DC01CB019F
:103380009E838D838D819E819A83898389819A8191
:103390000197F1F79A838983CF58DF4F0FB6F894DE
:1033A000DEBF0FBECDBFCF91DF911F910F9108956A
:1033B000DF93CF9300D000D0CDB7DEB79C838B8353
:1033C0001A8219820FC029813A818B819C81FC016C
:1033D000E20FF31F80810E941B1589819A8101965B
:1033E0009A83898329813A818B819C81FC01E20F38
:1033F000F31F8081882339F70F900F900F900F9063
:10340000CF91DF910895DF93CF93CDB7DEB7669765
:103410000FB6F894DEBF0FBECDBF9D8B8C8B6E8B2D
:1034200080E1FE013496DF01982F1D929A95E9F70D
:103430001B821A8219828C899D89009751F506C0DA
:1034400080E30E941B158E8981508E8B8E89882384
:10345000B9F751C0EA81FB818C899D892AE030E06F
:10346000B9010E94741F282F205DCE010496E80F39
:10347000F91F20838C899D892AE030E0B9010E94E0
:10348000741FCB019D8B8C8B8A819B8101969B83C2
:103490008A838C899D890097E9F606C080E30E94A3
:1034A0001B158E8981508E8B8E89282F30E08A8162
:1034B0009B818217930794F38A819B8101979B8359
:1034C0008A838981813099F48DE20E941B150FC097
:1034D0002A813B81CE010496FC01E20FF31F80811B
:1034E0000E941B158A819B8101979B838A838A8115
:1034F0009B8199236CF766960FB6F894DEBF0FBEDA
:10350000CDBFCF91DF910895EF92FF920F931F935C
:10351000DF93CF93CDB7DEB728970FB6F894DEBF11
:103520000FBECDBF6C837D838E839F8348876C8164
:103530007D818E819F810E944900DC01CB0162E088
:103540000E94031A81E090E09B838A8388858983A7
:1035500011C08A819B819C01220F331FC901880FF2
:10356000991F880F991F820F931F9B838A838981DC
:10357000815089838981882361F76C817D818E8167
:103580009F810E94B304DC01CB01AA2797FDA0957F
:10359000BA2FBC01CD010E9455049B01AC016C8186
:1035A0007D818E819F810E94C101DC01CB017C0164
:1035B0008D018A819B81CC01A0E0B0E0BC01CD01EE
:1035C0000E9407059B01AC01C801B7010E941F02C0
:1035D000DC01CB018C839D83AE83BF838EE20E948E
:1035E0001B156C817D818E819F810E944900DC01C9
:1035F000CB0168850E94031A28960FB6F894DEBFA7
:103600000FBECDBFCF91DF911F910F91FF90EF9033
:103610000895DF93CF93CDB7DEB7A9E5B0E0E9E534
:10362000F0E0808183608C93AFE5B0E0EFE5F0E0FF
:10363000808180688C93CF91DF910895DF93CF9341
:10364000CDB7DEB7A3E5B0E0E3E5F0E08081887FA9
:1036500082608C93CF91DF910895DF93CF93CDB7A4
:10366000DEB7A3E5B0E0E3E5F0E08081887F8C93EE
:10367000CF91DF910895DF93CF9300D0CDB7DEB720
:103680009A83898389819A819093C1018093C00133
:103690000F900F90CF91DF910895DF93CF9300D0DB
:1036A000CDB7DEB79A83898389819A81CC01A0E066
:1036B000B0E0BC01CD010E940705DC01CB01BC01DB
:1036C000CD0120E030E04AE754E40E941F02DC0113
:1036D000CB01BC01CD0120E030E040E853E40E9482
:1036E0001903DC01CB01BC01CD010E944900DC01C2
:1036F000CB019093BF018093BE018091BE01909158
:10370000BF019093BD018093BC01ECE5F0E02981FD
:103710003A8188EE93E0AC01249FC001259F900D73
:10372000349F900D112480830F900F90CF91DF91E3
:103730000895DF93CF93CDB7DEB7A5E4B0E0E5E41D
:10374000F0E0808188608C93A5E4B0E0E5E4F0E0EF
:10375000808180648C93AFE5B0E0EFE5F0E080819C
:1037600080688C93A5E4B0E0E5E4F0E080818062BD
:103770008C93A9E5B0E0E9E5F0E0808180648C936A
:10378000A9E5B0E0E9E5F0E0808180688C93A5E4EC
:10379000B0E0E5E4F0E08081887F84608C93CF9195
:1037A000DF9108950F931F93DF93CF930F92CDB7BF
:1037B000DEB7898303E410E08981882F90E0AA278F
:1037C00097FDA095BA2FBC01CD010E945504DC01E4
:1037D000CB01BC01CD0120E030E048EC52E40E9476
:1037E0001903DC01CB01BC01CD0120E030E04FE743
:1037F00053E40E941F02DC01CB01BC01CD010E94F9
:103800004900DC01CB01F80180830F90CF91DF915B
:103810001F910F910895DF93CF9300D0CDB7DEB7FE
:103820009A83898389819A819093C3018093C2018D
:103830000F900F90CF91DF910895DF93CF9300D039
:10384000CDB7DEB79A83898389819A819093C50128
:103850008093C4010F900F90CF91DF9108951F9234
:103860000F920FB60F9211248F939F93DF93CF93F4
:10387000CDB7DEB78091BC019091BD0101979093C7
:10388000BD018093BC01CF91DF919F918F910F90EB
:103890000FBE0F901F9018951F920F920FB60F92A8
:1038A00011242F933F934F935F936F937F938F9345
:1038B0009F93AF93BF93EF93FF93DF93CF93CDB7D6
:1038C000DEB78091BC019091BD01009769F4E09151
:1038D000C001F091C10109958091BE019091BF0195
:1038E0009093BD018093BC01CF91DF91FF91EF9147
:1038F000BF91AF919F918F917F916F915F914F9108
:103900003F912F910F900FBE0F901F9018951F920F
:103910000F920FB60F9211242F933F934F935F9303
:103920006F937F938F939F93AF93BF93EF93FF9387
:10393000DF93CF93CDB7DEB7E091C401F091C5011D
:103940000995CF91DF91FF91EF91BF91AF919F9139
:103950008F917F916F915F914F913F912F910F9038
:103960000FBE0F901F9018951F920F920FB60F92D7
:1039700011242F933F934F935F936F937F938F9374
:103980009F93AF93BF93EF93FF93DF93CF93CDB705
:10399000DEB7E091C201F091C3010995CF91DF91AB
:1039A000FF91EF91BF91AF919F918F917F916F9117
:1039B0005F914F913F912F910F900FBE0F901F90ED
:1039C0001895DF93CF9300D0CDB7DEB79A83898364
:1039D00089819A81AA2797FDA095BA2F880F991FF0
:1039E000AA1FBB1F880F991FAA1FBB1F880F991FF3
:1039F000AA1FBB1F880F991FAA1FBB1F9C01AD01E7
:103A000080E092E1AAE7B0E0BC01CD010E94881FEE
:103A1000DA01C90101979A838983AAE2B0E0EAE258
:103A2000F0E0808188608C93AAE2B0E0EAE2F0E006
:103A3000808180618C93A0E4B0E0E0E4F0E08081DC
:103A400084608C93A0E4B0E0E0E4F0E080818260E8
:103A50008C93AAE2B0E0EAE2F0E0808180688C9387
:103A6000AAE2B0E0EAE2F0E0808180648C93A0E416
:103A7000B0E0E0E4F0E0808180688C93E0E4F0E086
:103A800089819A81892F990F990B8083E9E2F0E06F
:103A9000898180830F900F90CF91DF910895DF93FC
:103AA000CF930F92CDB7DEB71982EBE2F0E08081C1
:103AB000881F8827881F882F90E090700097A9F3AF
:103AC000ECE2F0E08081898389810F90CF91DF91D2
:103AD0000895DF93CF930F92CDB7DEB78983EBE2E2
:103AE000F0E08081882F90E08072907095958795A6
:103AF00095958795959587959595879595958795AE
:103B0000009769F3ECE2F0E0898180830F90CF9118
:103B1000DF910895DF93CF9300D0CDB7DEB79A83BE
:103B2000898389819A819093C8018093C7010F90FE
:103B30000F90CF91DF9108951F920F920FB60F92C1
:103B400011242F933F934F935F936F937F938F93A2
:103B50009F93AF93BF93EF93FF93DF93CF93CDB733
:103B6000DEB7E091C701F091C8010995CF91DF91CF
:103B7000FF91EF91BF91AF919F918F917F916F9145
:103B80005F914F913F912F910F900FBE0F901F901B
:103B900018951F920F920FB60F921124DF93CF93B7
:103BA000CDB7DEB7CF91DF910F900FBE0F901F9072
:103BB0001895DF93CF9300D000D000D0CDB7DEB7FB
:103BC0001A8219820E94CA0E0E94000E80E895E2B5
:103BD0000E94E11C89EF9EE10E948A1D81E00E9403
:103BE0005E108CE00E945E1080E061E041E00E9487
:103BF000460980E062E041E00E94460983E063E01C
:103C000041E00E94460982E060E041E00E944609EE
:103C100082E060E040E00E943B0B1092CC011092E9
:103C2000CD01AFE5B0E0EFE5F0E0808180688C93F6
:103C30008FEF89830E94530E89838981282F30E07A
:103C40003E832D838D819E8185309105A1F02D814C
:103C50003E8128303105F1F48A81823021F08A8159
:103C60008F5F8A8301C01A8281E00E945E1081E02A
:103C70008093B1010FC08A81882321F08A8181500D
:103C80008A8302C082E08A8381E00E945E1081E024
:103C90008093B1018091B101813051F680E80E949A
:103CA0005E108A81282F30E03C832B838B819C819E
:103CB0008130910509F449C02B813C8122303105C6
:103CC00009F483C08B819C81009709F08FC080E646
:103CD00090E00E94D8198091CC01882F90E063E099
:103CE0000E94031A80EC0E945E1085E690E00E941C
:103CF000D8198091CC01882F90E0AA2797FDA09534
:103D0000BA2FBC01CD010E945504DC01CB01BC01DE
:103D1000CD0120E030E048EC52E40E941F02DC01BB
:103D2000CB01BC01CD0120E030E04FE753E40E941D
:103D30001903DC01CB01BC01CD010E944900DC016B
:103D4000CB0163E00E94031A51C08AE690E00E9412
:103D5000D8198091CD01882F90E0AA2797FDA095D2
:103D6000BA2FBC01CD010E945504DC01CB01BC017E
:103D7000CD0120E030E040EA50E40E941F02DC0167
:103D8000CB01BC01CD0120E030E04FE753E40E94BD
:103D90001903DC01CB01BC01CD0143E00E94841A70
:103DA00080EC0E945E108091CA01813029F48FE678
:103DB00090E00E94D8191AC08091CA018823B1F4FA
:103DC0008CE790E00E94D81911C08091CB0181301E
:103DD00029F489E890E00E94D81908C08091CB01AD
:103DE000882321F488E990E00E94D8191092B1014B
:103DF0001FCFDF93CF9300D00F92CDB7DEB7ECE2A9
:103E0000F0E080818983AFE5B0E0EFE5F0E080810C
:103E10008F778C938981282F30E03B832A838A8196
:103E20009B8183369105D9F12A813B812436310566
:103E30005CF48A819B818136910549F12A813B811D
:103E40002236310561F032C08A819B81843691052A
:103E500071F02A813B812536310589F027C00E9407
:103E60004F1D8093C90181E08093B1011FC00E9462
:103E70004F1D8093CA0181E08093B10117C00E9459
:103E80004F1D8093CB0181E08093B1010FC00E9450
:103E90004F1D8093CC0181E08093B10107C00E9447
:103EA0004F1D8093CD0181E08093B101AFE5B0E07B
:103EB000EFE5F0E0808180688C9383E063E00E940E
:103EC0002D0C813031F483E063E040E00E943B0B35
:103ED00005C083E063E041E00E943B0B0F900F9030
:103EE0000F90CF91DF910895AA1BBB1B51E107C032
:103EF000AA1FBB1FA617B70710F0A61BB70B881F7A
:103F0000991F5A95A9F780959095BC01CD01089508
:103F1000A1E21A2EAA1BBB1BFD010DC0AA1FBB1FCD
:103F2000EE1FFF1FA217B307E407F50720F0A21B3F
:103F3000B30BE40BF50B661F771F881F991F1A94AC
:103F400069F760957095809590959B01AC01BD01D6
:103F5000CF0108952F923F924F925F926F927F927E
:103F60008F929F92AF92BF92CF92DF92EF92FF9289
:103F70000F931F93CF93DF93CDB7DEB7CA1BDB0B35
:103F80000FB6F894DEBF0FBECDBF09942A883988DA
:103F900048885F846E847D848C849B84AA84B984E1
:103FA000C884DF80EE80FD800C811B81AA81B981ED
:103FB000CE0FD11D0FB6F894DEBF0FBECDBFED0101
:063FC0000895F894FFCF04
:103FC600504F543D0046414E3D004C44523D004C3E
:103FD60045445320415245204F4E20004C45445302
:103FE60020415245204F464600444F4F52204953E8
:103FF600204F50454E454400444F4F5220495320D0
:10400600434C4F53454400000000000000000000F0
:104016000102020303030304040404040404040564
:104026000505050505050505050505050505050639
:10403600060606060606060606060606060606061A
:104046000606060606060606060606060606060709
:1040560007070707070707070707070707070707EA
:1040660007070707070707070707070707070707DA
:1040760007070707070707070707070707070707CA
:1040860007070707070707070707070707070708B9
:10409600080808080808080808080808080808089A
:1040A600080808080808080808080808080808088A
:1040B600080808080808080808080808080808087A
:1040C600080808080808080808080808080808086A
:1040D600080808080808080808080808080808085A
:1040E600080808080808080808080808080808084A
:1040F600080808080808080808080808080808083A
:10410600080808080808080808080808080808240D
:024116000001A6
:00000001FF
